:020000040800F2
:1000000000500020911D0008551D0008571D0008D4
:10001000591D00085B1D00085D1D00080000000060
:100020000000000000000000000000005F1D00084C
:10003000611D000800000000631D0008651D000828
:10004000D91D0008D91D0008D91D0008D91D0008B8
:10005000D91D0008D91D0008D91D0008D91D0008A8
:10006000D91D0008D91D0008D91D0008D91D000898
:10007000D91D0008D91D0008D91D0008D91D000888
:10008000D91D0008D91D0008D91D0008D91D000878
:10009000691D0008D91D0008D91D0008D91D0008D8
:1000A000D91D0008D91D0008D91D0008D91D000858
:1000B000751D0008D91D0008D91D0008D91D0008AC
:1000C000D91D0008D91D0008D91D0008D91D000838
:1000D000D91D0008D91D0008811D0008D91D000880
:1000E000D91D0008D91D0008D91D00080000000016
:1000F0000000000000000000000000000000000000
:0C01000000000000000000005FF808F1A3
:10010C0010B5054C237833B9044B13B10448AFF345
:10011C0000800123237010BD8C0100200000000022
:10012C00C057000808B5034B1BB103490348AFF394
:10013C00008008BD0000000090010020C05700089E
:10014C00034613F8012B002AFBD1181A013870470B
:10015C0070B5054600F07CFE00F070FF012818D148
:10016C00454C2378062B00F28580DFE803F012045F
:10017C00131E323C440000F071FF28B1CC2000F07B
:10018C0023FF0223237004E04FF65A223B4B2070CE
:10019C001A8070BD442000F017FF0323384A2370E7
:1001AC00384B1A60384B1D60F3E7374A35491368F2
:1001BC000868156003445B1BB3F1006F0B60E8D952
:1001CC000022324B1A7004232370BDE8704000F0FB
:1001DC0011BF00F043FF20B1CC2000F0F5FE052349
:1001EC00D0E72070D5E7FF22284BBE201A7000F014
:1001FC00EBFE0623C6E7254D2E78FF2E03D000F02C
:10020C0023FF234B98552A780132D2B2092A2A703F
:10021C002CD11F48002306462370013A12F0FF022E
:10022C000ED14FF65A22032014490A80194A107035
:10023C00307A9842ADD133880B8002231370A8E733
:10024C00082110F8014B83EA040515F0010F4FEA61
:10025C00530318BF83F08C0301F1FF3118BFDBB2DD
:10026C0011F0FF014FEA5404EDD1D6E7BDE8704020
:10027C0000F094BE002385E7B1010020B4010020FA
:10028C0040420F00BC010020B8010020B201002048
:10029C00A8010020B60100204FF65A2208B5054BE4
:1002AC001A800022044B1A7000F0A8FDBDE808402B
:1002BC0000F0C4BEB4010020B101002010B500F064
:1002CC00BDFE0128044603D0BDE8104000F0B6BEC8
:1002DC0000F090FE024B20461C70024B1C7010BDAF
:1002EC00B1010020B60100200022034B1A70034B11
:1002FC00B3F90000704700BFB6010020B401002024
:10030C00014B1878704700BFB601002000220A4943
:10031C0030B50B88094D013810F8014F14B902B1F2
:10032C000B8030BD5A1C92B2B2F5807FEC5414BFD6
:10033C00134600230122EFE700040020EC0200200A
:10034C00074A10B51188074C4B1C9BB2B3F5807F44
:10035C00138008BF0023605408BF138010BD00BF7A
:10036C0000040020EC02002038B500240D4B0D4693
:10037C001C700D4B01463F22184605F0DBF90B4B68
:10038C001F2280F83F402946184605F0D3F9322247
:10039C00074BC4771A600D22064B1A70064B1C7063
:1003AC0038BD00BFC9010020AC020020F6010020BE
:1003BC00F0030020C8010020F8030020174B70B593
:1003CC005B6806460D46144623B347F23053144976
:1003DC001448002A08BF1C4605F0E4F9124B0F2202
:1003EC001846314605F0A6F900221049C2730A22BC
:1003FC00284605F053F90A2220460D4905F04EF91E
:10040C000C4B187810F0020003D0092206200A4B7E
:10041C001A7070BD4FF0FF30FBE700BFCC0100201D
:10042C00D85700080000002096020020A6020020E9
:10043C00F0010020C9010020C8010020054B1878EC
:10044C0010F0020004D004480378002B08BF0020F1
:10045C00704700BFC9010020E0010020084B10B517
:10046C009B685BB1074A084C11884B1C9BB2802BD4
:10047C00138008BF0023605408BF138010BD00BF59
:10048C00CC010020FE030020160200202DE9FF47BE
:10049C009A46334B81465B680E461746002B59D063
:1004AC00DFF8C08098F80040630656D514F00804B5
:1004BC0049D10A2201A9384605F0F0F801A8FFF746
:1004CC003FFE0138C0B2032839D82748FFF71EFF7A
:1004DC0001A8FFF71BFF2548FFF718FF2246244908
:1004EC0024480B88A5B2BD4216D302B10B8098F8F4
:1004FC000030214C23F00C0343F00C0388F800303F
:10050C0023683BB11D489847236801A89847236886
:10051C001B489847092013E05D1CADB2B5F5807FF0
:10052C0008BF0025721C19F8066092B2C65401343B
:10053C00524514BF164600262B460122D2E70B204B
:10054C0004B0BDE8F0870C4B1B680BB10D48984705
:10055C000820F5E74FF0FF30F2E70520F0E700BF89
:10056C00CC010020C901002024590008DC570008E8
:10057C0000040020EC020020C0010020DF5700081E
:10058C005A580008F257000803460F4A30B500F1DC
:10059C001005144618685968083303C4AB42224648
:1005AC00F7D118680023094A20601370084A1370A9
:1005BC00084A1380084A1380084A1380084A13809B
:1005CC00084A137030BD00BFCC010020C8010020C8
:1005DC00CA010020FC03002000040020FA030020C4
:1005EC00FE030020C9010020094A13680BB1013B2E
:1005FC001360084A136823B1013B13600BB9064A18
:10060C001370064A13680BB1013B1360704700BFAF
:10061C00F0030020EC030020CA010020F4030020AA
:10062C002DE9F84FAB4BAC4EB3F800B03388002536
:10063C005B4506D0A94F3B780D3B022B20D8A6F882
:10064C0000B0A74EA74C3368002B40F045826423C2
:10065C00A24D33602B780F2B00F23E82DFE813F0B3
:10066C00690351026A0270027A028402EB02F302FD
:10067C000403130322035F0364031C0228023702E2
:10068C000223994A994C136032889345D9D0984BE0
:10069C0021789B5C0C2900F2FA81DFE811F00D0047
:1006AC005700C200F801F80179018E019601A301EF
:1006BC00F801BE01C201D8010022042196468D48E2
:1006CC00DFF83482DFF83492027088F800105FFA99
:1006DC0082FC59F82C10A1B9BEF1000F01D080F8A2
:1006EC0000C00021804A7F481160027812F0010F8F
:1006FC0020D03E2B1ED1824B61F300020270196098
:10070C0018E091F804A001329A451CD1BEF1000FFB
:10071C0001D080F800C00B784A78303B313A03EBBB
:10072C00830302EB4303774A1380012323700523D1
:10073C0088F80030338801339BB2802B338004BFA0
:10074C0000233380A0E74FF0010EC0E7DFF8A4C10F
:10075C006A489CF8001050F821106748007811F88E
:10076C0000E09E4514D1DFF89CC1BCF80020013A92
:10077C0092B2ACF800200AB10D2B4AD18B78CA7812
:10078C00303B03EB8303303A02EB43032370D1E796
:10079C0000218946C0F57F4A8CF800100AF1D30A73
:1007AC00DFF858C15FFA81F85CF828C0BCF1000F83
:1007BC0009D1B9F1000F00F03C81524B1D804D4B1B
:1007CC0083F8008035E19CF800E09CF80150AEF114
:1007DC00300E0EEB8E0E554405EB4E05ADB27F2D53
:1007EC001BD81CF800E09E4517D1464B1D80B9F173
:1007FC00000F02D03F4B83F8008055B99CF80230B3
:10080C009CF80320303B03EB8303303A02EB4303A9
:10081C002370394B013018708CE74FF0010901310E
:10082C00BEE70A2B86D10022324B22701B78023B8A
:10083C000D2B3FF67FAF01A151F823F08108000882
:10084C009B080008B50800084107000821090008AA
:10085C0021090008430900084F090008670900082E
:10086C0043090008410700088709000841070008F0
:10087C00910900083B78022B7FF45CAF0022184BE7
:10088C001A60184A137843F02003137052E7154A84
:10089C00137819077FF54EAF23F0480313701A4BEA
:1008AC001A881A4B1A8045E70D4B1A603B78062BB9
:1008BC000C4B02BF1A7842F020021A701A7842F0E0
:1008CC0002021A70124B1B68002B3FF433AF03204B
:1008DC0098472FE7FE030020FA030020C8010020F0
:1008EC00F0030020C9010020EC030020CA01002005
:1008FC00160200200404002005040020545A0008AD
:10090C00F40300200204002000040020FC0300205B
:10091C00C4010020974A137823F042031370964BBE
:10092C001B680BB1002098473B78062B3FF402AFB5
:10093C000F233B70FEE68F4B1A786FF386121A70FA
:10094C00F8E68C4B1A786FF3C3021A708A4B1B684B
:10095C00002B3FF4EFAE0A20BAE7884B1A60854AA9
:10096C00137823F0600343F060031370824B1B6811
:10097C00002B3FF4DFAE0720AAE77E4A137823F062
:10098C00420382E77B4A137823F042031370CFE7CC
:10099C007B492C2B096807D10623237000293FF4CF
:1009AC00C9AE78488847C5E60023013A23703280E7
:1009BC0000293FF4BFAE7448F4E7222B7FF4BAAEA3
:1009CC00072323700022714B6CE7222B03D06F4955
:1009DC000A88102A01D10823D8E6501C08806C49DB
:1009EC008B54A7E60A2B7FF4A5AE0023674A23702D
:1009FC001188674A0F299BBF53545E4913700A78BC
:100A0C009FBF42F020020A705C4A13605A4B1B686D
:100A1C00002B3FF48FAE04205AE72C2B09D10B236B
:100A2C00CFE73A2B01D10C23B0E6A3F13001092911
:100A3C0004D90023013A237032807BE653490A889B
:100A4C0002EB820203EB4202303A0A8072E6514A10
:100A5C00D168088891680B54D1680B8801339BB21C
:100A6C000B80128A9A4208BF0023484A0B801388D5
:100A7C00013B9BB21380002B7FF45CAE2370404B88
:100A8C001B68002B3FF456AE4348984752E60023B0
:100A9C00424A237013604DE63E4B00201B6898477A
:100AAC00374B1B680BB13E4898470E232B7013E055
:100ABC00384B01201B689847314B1B680BB13948E8
:100ACC0098470F232B704FF4FA73336004E0012323
:100ADC0000222B70344B1A702378DA0740F12B81EB
:100AEC00324A12685AB962F3000301222370304B68
:100AFC0030491A700A2308882F4933600880BDE8F2
:100B0C00F88F294A13782BB1013BDBB213701BB958
:100B1C000D23CBE704231370237828486FF3451378
:100B2C002370FFF7F3FB164B1B680BB12448984757
:100B3C000223BBE72378980640F1A3800323B5E793
:100B4C002048FFF7E3FB0E4B1B680BB11E48984780
:100B5C000423ABE71D48FFF7D9FB094B1B680BB10E
:100B6C001B4898470523A1E72378990732D507231B
:100B7C009CE700BFC9010020C4010020F003002045
:100B8C00C00100200A5800081F5800080204002069
:100B9C00E0010020CC01002033580008EC030020B9
:100BAC00465800085C580008F8030020F4030020A5
:100BBC00C801002000040020FC030020F8580008A5
:100BCC007258000847590008805800081659000848
:100BDC00945800086D4F3B78002B3FF47DAF6C4868
:100BEC00FFF794FB2220FFF7ABFB3846FFF78EFB99
:100BFC002220FFF7A5FB2C20FFF7A2FB2220FFF7FA
:100C0C009FFB6448FFF782FB2220FFF799FB0D2026
:100C1C00FFF796FB0A20FFF793FB5F4B1B680BB1AA
:100C2C005E48984723786FF34513237006232B7087
:100C3C0040F2DC5349E723789A0622D50723042295
:100C4C002B70574B47E70022564B57481A70FFF74B
:100C5C005DFB514B1B680BB15448984723786FF3DD
:100C6C0045132370082321E723789B0601D509231C
:100C7C001CE74B4A1378013BDBB21370002B7FF45B
:100C8C0076AF012312E74A4B1B78002B3FF424AFBD
:100C9C004848FFF73BFB404B1B680BB14648984755
:100CAC000A2303E74548FFF731FB2220FFF748FBF7
:100CBC004348FFF72BFB2220FFF742FB2C20FFF7CA
:100CCC003FFB2220FFF73CFB3948FFF71FFB22209C
:100CDC00FFF736FB2C20FFF733FB3A48FFF716FBE8
:100CEC002C20FFF72DFB3848FFF710FB2C20FFF7CB
:100CFC0027FB3020FFF724FB0D20FFF721FB0A20F8
:100D0C00FFF71EFB244B1B680BB130489847237828
:100D1C0023F0600323700B232B70C823D5E62378B4
:100D2C009F06AED50C23C1E623789807A9D55906A2
:100D3C009DD50023C9E6264D26492A88098891426B
:100D4C003FF4DDAE244E5F07B05C02D53E2808BFF1
:100D5C000A20224B5B68984700283FF4D0AE2278DB
:100D6C002B8851070AD5F15C3E2907D1052122F0C9
:100D7C00050242F001022270194A116001339BB244
:100D8C00B3F5807F08BF00232B80B8E6AC020020AF
:100D9C003D590008F6010020C0010020A8580008A9
:100DAC00F8030020E0010020FD580008BB580008A3
:100DBC009602002008590008CC5800083059000849
:100DCC0000000020A6020020F0010020E2580008DC
:100DDC00FC03002000040020EC020020CC010020C9
:100DEC00F4030020014B1860704700BFC4010020C1
:100DFC00014B1860704700BFC001002030B50E4B8E
:100E0C00056844681D600D4B81681C600C4BC26802
:100E1C0019600C4B1A600C4B02691A600B4B15B91C
:100E2C0000221A7030BD002CFAD00029F8D0002A0C
:100E3C00F6D00122F5E700BF1004002014040020B6
:100E4C00180400200C040020080400201C040020BE
:100E5C0070B54A4C0646A2689AB16368C31A9A42A6
:100E6C0034D80023A360464D2B780D2B00F28380E1
:100E7C00DFE803F02909141C272D3945278154601C
:100E8C00687A6060EFE73F4B00201B6898474FF48F
:100E9C00F073A360022366602B7017E03A4B1B685B
:100EAC00984746236660A3600323F5E7374B1B681E
:100EBC009847374B666018704FF4CD73A3600423CA
:100ECC00EAE700232B700122324B1A7070BD324BB3
:100EDC001B6898472B4B00201B68984704236660BF
:100EEC00A3600623D8E7227863781A4202D0264BF7
:100EFC001B68984736236660A3600723CCE7224B18
:100F0C001B6898470A23A360637866605B00DBB2BA
:100F1C0063700BB10523BFE70823BDE71E4B1B68AD
:100F2C009847184B00201B68984704236660A36001
:100F3C000B23B1E7144B1B68984706236660A3602C
:100F4C000C23A9E7114B1B689847114B012818700B
:100F5C00237866604FEA530308BF63F07F03237066
:100F6C003C23A3600D2397E763785B086370002B29
:100F7C00A8D00A2390E700238EE700BF20040020AE
:100F8C002C04002018040020100400200C04002065
:100F9C00060400201C04002014040020074B1878C1
:100FAC00022809D04FF40041054A012011800A2182
:100FBC00044A117002221A70704700BF1C040020F2
:100FCC00200400202C040020074A03461078022835
:100FDC0008D0012005490B7048700521044B19708D
:100FEC0002231370704700BF1C0400202004002053
:100FFC002C04002010B50B4C2078022811D00A4B81
:10100C001B689847094B01201B6898470322084B23
:10101C0001209A600022074B1870074B1A700223AC
:10102C00237010BD1C0400201404002018040020A0
:10103C00200400202C04002006040020014B18780A
:10104C00704700BF1C0400200122024B1A70024B97
:10105C00187870471C04002020040020024B1878DC
:10106C00B0FA80F04009704706040020002381800C
:10107C008371704770B500240B4B8C4205DB0B4A17
:10108C00137843F00403137070BD1E68DA8892B2B3
:10109C00551CADB2DD80055D0134B5541D8ADA886E
:1010AC0092B22A40DA80E8E7600A00204C0900205E
:1010BC000246054B1B68186810F080001EBF034BDE
:1010CC0001205A60704700BFE00900200044004036
:1010DC00704701207047000002460221014801F0D0
:1010EC006BB800BF000C014002460221014801F020
:1010FC0063B800BF000801400221014801F056B856
:10110C00000801400368B3F1804F0CD1064A1378F4
:10111C00013BDBB2137033B904490B7843F008037D
:10112C000B70282313707047750A00204C0900209F
:10113C0010B50D4C0D4AE3889BB2D05CFFF78EF9CD
:10114C00E3880B4801339BB2E380228AE3889BB28D
:10115C001340E3802168E3880122BDE810409BB274
:10116C00194402F046BE00BF4C0A00204405002082
:10117C00E00900202DE9F04F002201244FF0060871
:10118C00052504264FF0030C4FF0020E90F8069044
:10119C000389994501D1BDE8F08F0779018A062FA3
:1011AC0056D8DFE807F00410171E242E40000768FD
:1011BC00FB5C552B01D10471057303890B40013382
:1011CC0019400181E4E70768FF5C4E2F27D180F8B6
:1011DC0004E0F2E70768FF5C452F20D180F804C0DB
:1011EC00EBE70768FF5C522F19D10671E5E707683A
:1011FC0017F803A0057180F80EA0FB5C023BC373CB
:10120C00DBE70768FF5C3A2F09D101330B404381C0
:10121C00837B80F8048083F036034373CDE7013B76
:10122C0002710381C9E7877B90F80DA0013FFFB2E3
:10123C00D0F800B0877327B11BF803308AEA030398
:10124C00EBE707711BF803305345B6D18474B4E750
:10125C000271B2E7C388026810B55C1CC480D1541B
:10126C00C38842891340C38010BDC38830B55D1C50
:10127C00C58055250468E554C388448923405D1C0A
:10128C00C5804E250468E554C388448923405D1C01
:10129C00C58045250468E554C388448923405D1CFA
:1012AC00C58052250468E554C38844898280234054
:1012BC0004685D1C0132C580E2544289C388134026
:1012CC005C1CC4803A240268D4544289C3881340FD
:1012DC0002685C1CC480D154C38842891340C3800B
:1012EC0030BDC2888188931F5B1A002170B5857A46
:1012FC0004682B409A4207D1531CC380A154C38865
:10130C0042891340C38070BD5E1CE35C594006EA01
:10131C000503EFE7002370B5DAB28C5C013304B936
:10132C0070BDC4880568661CC6808A5C2A55C28854
:10133C0044892240C280EFE70346002210B59A741C
:10134C005A891B680846995CF02918D0F12921D0DC
:10135C00A02929D105221221FFF787FF154B164C26
:10136C0019682160C9B2FFF775FF6178FFF772FF4A
:10137C00A178FFF76FFFE178FFF76CFF10E0022216
:10138C00FFF773FF0D21FFF765FFFFF7AAFF03239C
:10139C00838010BD0E22FFF768FF0849FFF7BAFFE4
:1013AC00BDE81040FFF79DBF0222FFF75EFFFF2153
:1013BC00E2E700BF48090020A00A00200E5B0008ED
:1013CC00032808B502D10E490E4810E0042803D0BA
:1013DC00072810D10C49F7E70C490A48FFF79AFF88
:1013EC00FFF72CF801460748FFF794FF0849BDE8C2
:1013FC000840FFF78FBF0A2800D008BD0549E3E776
:10140C00A05A0008940A0020BF5A0008B55A0008D8
:10141C005A580008D05A00082DE9F0411F4E204CB4
:10142C003378A18813F0010F09BF25890025ED43FE
:10143C0043F001031B4F08BFEDB201F1060208BFD8
:10144C003370AA423B7811DA13BB07312389206829
:10145C0089B2184403F062FF30B9E38838702381F5
:10146C00337860F300033370BDE8F08183B92389CE
:10147C0020681FFA85F84146184403F04FFF38B92D
:10148C0023899844A388A4F8088007335B1B3B701E
:10149C0039780029E8D023892068DAE74C09002044
:1014AC00940A00204409002010B5074C4FF48073B7
:1014BC002189E2882068521AD2B2FEF7E7FF092888
:1014CC0004BFE388238110BD880A0020012310B5D6
:1014DC000D4C227893400D4ADBB21278920710D54E
:1014EC000B4A12684FF400511A400A4800F064FE8F
:1014FC0023780133DBB21F2B237001D90023237017
:10150C0010BD054AEDE700BF280A00204C09002059
:10151C000C00002000100140080000201D4A08B5F6
:10152C001388013B9BB213803BB91B490B7843F0EA
:10153C0010030B704FF4FA731380184A1378013BA5
:10154C00DBB2137033B914490B7843F040030B70C2
:10155C0064231370124A1378013BDBB2137033B956
:10156C0010490B7843F002030B70C82313700E4A1A
:10157C001378013BDBB2137043B907490B7843F086
:10158C0080030B700A231370FFF7A0FFBDE808401F
:10159C00FFF72AB8780A00204C090020760A0020B0
:1015AC00770A00204D090020740A002038B516482F
:1015BC000222F021FFF759FE144D0D21FFF74AFED0
:1015CC00FFF78FFE0322A121FFF74FFE104CB5F958
:1015DC0000102180C9B2FFF73DFE6178FFF73AFE9B
:1015EC00FFF77FFE2B8803220A48A1212380FFF7F7
:1015FC003CFE2178FFF72EFE6178FFF72BFEBDE84D
:10160C003840FFF76EBE00BF880A0020300A002069
:10161C00A00A0020940A002038B5134D0522284654
:10162C001221FFF722FE114B114C19682160C9B22F
:10163C00FFF710FE6178FFF70DFEA178FFF70AFEA9
:10164C00E178FFF707FEFFF74CFEFEF737FE284662
:10165C001022F121FFF709FE0649FFF75BFEBDE8FA
:10166C003840FFF73EBE00BF940A00204809002016
:10167C00A00A0020DF5A00081FB5002302930123A3
:10168C000193022300916946039300F0B5FC05B069
:10169C005DF804FB02210148FFF7EEBF0008014092
:1016AC001FB5002301930393012300916946029314
:1016BC0000F0A2FC05B05DF804FB0000022101481B
:1016CC00FFF7EEBF0008014010B50948094C436A0A
:1016DC00226823609A42084A82BF11680131116066
:1016EC001268C16A02FB0133044A136010BD00BFCB
:1016FC00000400402C0A0020480A00204809002061
:10170C0030B595B0142200210CA804F00BF814226B
:10171C00102500210DEB020004F004F82A460021EC
:10172C0001A803F0FFFF02244FF480330122CDE91E
:10173C001143CDE90A234FF4E0130AA80E92139338
:10174C0001F0D0FB08B172B6FEE70F23CDE90534EA
:10175C004FF480630790CDE90830214605A801F0CD
:10176C0083FD08B172B6FEE7049001A8019501F063
:10177C0037FE08B172B6FEE715B030BD00252DE975
:10178C0080488DB000F048FB844B854F1D70854B15
:10179C00854C3B60FF2385493D81854AFD803B821A
:1017AC003D7121602581E5802382824B82481A603D
:1017BC004FF47F02DD809A60804B4FF4FA7A186008
:1017CC009A60DD807E487F4BDFF8FC911860282002
:1017DC009A60DD800633C9F80C304FF480737B4A75
:1017EC00DFF8EC8115707B4AA9F8103010707A4A3A
:1017FC0088F80050A2F800A0784A2571C9F800209A
:10180C00774A0226C9E90121FFF77AFF10222946FF
:10181C0008A803F087FF734B4FF400519A69724884
:10182C0042F010029A619A694FF0010B02F010021B
:10183C000292029A9A6942F020029A619A6902F025
:10184C0020020392039A9A6942F004029A619A69FF
:10185C0002F004020492049A9A6942F008029A6116
:10186C009B692A4603F008030593059B00F0A4FC32
:10187C002A4602215D4800F09FFC2A4602215C4862
:10188C0000F09AFC4FF40053574808A9CDE9083BE7
:10189C000B960A9500F0B0FB544808A9CDE9086BEB
:1018AC00CDE90A5600F0A8FB514808A9CDE9086B10
:1018BC00CDE90A5600F0A0FB1022294608A803F037
:1018CC0031FF4FF080434B4ECDE90655C6E900354C
:1018DC0044F250633046C6E90335B560B56101F09A
:1018EC0027FF08B172B6FEE74FF48053304608A9C3
:1018FC00089301F053FF08B172B6FEE7CDE906007C
:10190C0006A9304601F0E4FF08B172B6FEE74FF4C9
:10191C00E132DFF8E4B0DFF8E4E0CBE90200CBE938
:10192C0000E20C22CBF81000CBE90520CBF81C0010
:10193C00584602F065F808B172B6FEE7019003F064
:10194C0099FC1022019908A803F0ECFE47222C4DBB
:10195C00DFF8B0C00199C5E900C24FF6FF72284606
:10196C00CDE90611C5E90321A960A96101F0E0FEEA
:10197C0008B172B6FEE74FF48053284608A90893C5
:10198C0001F00CFF08B172B6FEE7CDE9060006A91E
:10199C00284601F09DFFB8B372B6FEE74D09002052
:1019AC00600A0020440700204C0A00204405002057
:1019BC00440400207C0A002044080020940A0020E3
:1019CC0044060020880A002030040020440900202E
:1019DC004C090020750A0020780A0020E510000848
:1019EC00BD1000080010024000100140000801402A
:1019FC00000C014050090020E00900200044004088
:101A0C0098090020000400406A4901906A4801616D
:101A1C006A4901606A4941606A49C1606A498160EA
:101A2C00FEF73AFC4FF0E0214969684801FB0AAA2D
:101A3C004FF47A71BAFBF1F1FFF718FB644803F02D
:101A4C0083FC019A98F80010484662F3820188F8EA
:101A5C000010FEF799FD5F495F48FEF785FC5F4A71
:101A6C005F49128809885F48FEF7A8FC5E48FFF7BB
:101A7C00B9F95E48FFF7BCF92068E188012289B208
:101A8C000144584602F0B5F9304601F049FD2846AC
:101A9C0001F020FDDFF858A1DFF85891564D574E54
:101AAC00FFF712FEFEF7BCFDDAF80000FEF750FB64
:101ABC0098F80030180705D56FF3C30388F8003089
:101ACC00FFF72CFD98F80030D90605D56FF30413F9
:101ADC0088F80030FFF76AFD494B1B789A0705D54B
:101AEC00474A6FF341031370FFF796FDBB7C1BB1A4
:101AFC0029464448FFF720FCFA883B8992B29BB2F6
:101B0C009A4203D029463F48FFF734FBEA882B89D9
:101B1C009A4201D0FFF780FCA37C1BB131463A48B6
:101B2C00FFF70AFCE288238992B29BB29A4203D057
:101B3C0031463548FFF71EFBF28833899A4201D0B3
:101B4C00FFF7B2FCFEF7DCFB43B20238C0B201284F
:101B5C0089F80030A4D8032B15D12C4A1378013303
:101B6C00DBB2132B88BF13231370FEF7BDFB284B7E
:101B7C0010221880F1212048FFF777FB2549FFF749
:101B8C00C9FBFFF7AEFB99F90030022B86D1FEF7AB
:101B9C00ABFB1F4B10221880F1211748FFF765FB98
:101BAC001D49FFF7B7FBFFF79CFB0022174B1A7080
:101BBC0074E700BFDF100008340A0020C9160008C3
:101BCC00A116000805110008F5100008A40A002051
:101BDC00811000081C5B0008335B00080400002027
:101BEC0006000020265B0008CD130008DD1000085D
:101BFC0048090020A00A0020940A0020880A00202E
:101C0C004D090020600A00204C0A002045090020E4
:101C1C00300A0020EE5A0008FE5A000872B6FEE7A1
:101C2C000E4B82B09A6942F001029A619A6902F0F5
:101C3C0001020092009ADA6942F08052DA61DB69A3
:101C4C00074A03F080530193019B536823F0E06330
:101C5C0043F00073536002B0704700BF00100240A5
:101C6C0000000140036807B5B3F1804F15D103F5AF
:101C7C000433DA691C2042F00102DA610022DB69CC
:101C8C00114603F001030093009B00F0FBF81C20AD
:101C9C0003B05DF804EB00F025B9084A934209D172
:101CAC00074BDA6942F00202DA61DB6903F00203E6
:101CBC000193019B03B05DF804FB00BF00040040DE
:101CCC000010024010B5044686B01022002102A874
:101CDC0003F028FD22681A4B9A422FD103F5E63304
:101CEC00DA69184842F40032DA61DA6902A902F4BE
:101CFC0000320092009A9A69002442F004029A6120
:101D0C009B69042203F004030193019B0223CDE998
:101D1C0002230323059300F06FF9082309480DEB08
:101D2C000301CDE90234049400F066F92620224622
:101D3C00214600F0A7F8262000F0D4F806B010BD1C
:101D4C000044004000080140FEE7FEE7FEE7FEE726
:101D5C00FEE770477047704700F070B8014800F01C
:101D6C00D5BA00BF7C170020014801F007BC00BFAA
:101D7C0050090020014801F0D9BE00BFE009002045
:101D8C0070470000FFF7FCFF0B480C490C4A00237E
:101D9C0002E0D458C4500433C4188C42F9D3094A15
:101DAC00094C002301E013600432A242FBD303F080
:101DBC00D5FCFFF7E3FC7047000000208C010020ED
:101DCC00D85B00088C0100208C1C0020FEE7000072
:101DDC0038B50E4B05461A784FF47A73B3FBF2F311
:101DEC000B4A1068B0FBF3F000F08AF8044658B9BF
:101DFC000F2D09D8024629464FF0FF3000F042F86B
:101E0C002046044B1D6038BD0120FCE71400002067
:101E1C001000002018000020074A08B513680320A2
:101E2C0043F01003136000F01BF80F20FFF7D0FFF6
:101E3C00FFF7F6FE002008BD00200240034A044BC9
:101E4C0011681B780B441360704700BFAC0A00206C
:101E5C0014000020014B1868704700BFAC0A00202A
:101E6C0007490302CA6803F4E06322F4E062120437
:101E7C00120C134343F0BF6343F40033CB60704741
:101E8C0000ED00E0154B30B5DC68C4F30224C4F15E
:101E9C000703251D042B28BF0423062D4FF0FF3507
:101EAC0094BF0024033C05FA03F321EA0303A54085
:101EBC0022EA0502A340002843EA0203ACBF00F16A
:101ECC006040074A4FEA0313DBB2ABBF00F5614039
:101EDC0000F00F0080F80033135430BD00ED00E02B
:101EEC0014ED00E0002807DB01234109034A00F050
:101EFC001F00834042F82130704700BF00E100E032
:101F0C000138B0F1807F0BD24FF0E023F021054A6D
:101F1C00586182F823100020072298611A617047DB
:101F2C000120704700ED00E090F821200346022AC2
:101F3C0006D0042282630120002283F820207047FF
:101F4C000268C06B116821F00E011160116821F05C
:101F5C000101116001211A6C01FA02F242600020A9
:101F6C0083F82110E8E7000010B590F82130022B1F
:101F7C0003D004238363012010BD03681A6822F088
:101F8C000E021A601A6822F001021A60184A934273
:101F9C001FD0143293421ED0143293421DD01432EF
:101FAC0093421DD0143293421DD0143293420CBF75
:101FBC004FF480134FF080730E4A002453600123BA
:101FCC0080F82130436B80F820407BB19847204645
:101FDC00D2E70123F0E71023EEE74FF48073EBE731
:101FEC004FF48053E8E74FF48033E5E71846C3E736
:101FFC0008000240000002402DE9F74F002216466F
:10200C00644F654BDFF894C1DFF894E10D6835FA45
:10201C0006F402D103B0BDE8F08F4FF0010808FAC6
:10202C0006F805EA080438EA05057AD14D68032D4F
:10203C0007D8013D022D00F28780DFE805F0959A64
:10204C00A000122D00F098806DD8112D00F08E801C
:10205C00FF2C98BF82464FF00F0988BF00F1040A8D
:10206C004FEA8605DAF8008088BF203D09FA05FBA7
:10207C0028EA0B0802FA05F548EA0505CAF80050EB
:10208C00D1F804A01AF0805F4BD0BD6926F003088C
:10209C0045F00105BD61BD6908F1804805F00105F9
:1020AC00019508F5803806F0030B019D4FEA8B0B68
:1020BC00D8F8085009FA0BF925EA0909394DA84254
:1020CC0061D005F58065A8425FD005F58065A84212
:1020DC005DD005F58065A8420CBF0325042505FAE3
:1020EC000BF545EA0905C8F808509D681AF4801FDD
:1020FC0014BF2543A5439D60DD681AF4001F14BF6F
:10210C002543A543DD605D681AF4003F14BF2543E9
:10211C00A5435D601D681AF4803F14BF2543A54399
:10212C001D60013672E7DFF880904D450CD017D852
:10213C00A9F580194D4507D009F570294D4503D0F7
:10214C00A9F580194D4583D18A68D2B1012A08BFFF
:10215C00C0F810804FF0080218BFC0F8148077E761
:10216C006545F1D07545EEE7CA6871E7CA68043277
:10217C006EE7CA6808326BE7CA680C3268E700225F
:10218C0066E7042264E70025A9E70125A7E70225F5
:10219C00A5E700BF00100240000401400000311010
:1021AC000000321000080140000022108368194220
:1021BC0014BF0120002070470AB101617047090467
:1021CC00FBE7F0B5044687B010B390F8A93203F0E2
:1021DC00FF021BB980F8A82203F03CF90323254623
:1021EC006E4684F8A93255F8100B01F023FE0FCD82
:1021FC000FC62B68271D3360264697E80E0056F84D
:10220C00100B01F007FE054620B1022384F8A93219
:10221C0001254BE00146206801F016FE29464FF0DF
:10222C00010E28250A46D4F804C0C8B2844501F131
:10223C0001011BD8002328251946D8B2844503F187
:10224C0001031FD8EC4635460FCDACE80F002B68C8
:10225C00CCF8003097E80E00206801F0F7FD012360
:10226C000546E0B1022284F8A922D1E705FB004320
:10227C00C3E90E2283F829E083F8280083F82B2089
:10228C001A64D2E705FB0042C2E95E1182F86911BB
:10229C0082F8680182F86B11C2F88011CDE784F8DE
:1022AC002400206884F8A93202F088F8284607B088
:1022BC00F0BD38B590F8A8320446012B10D001259A
:1022CC0080F8A852006801F0ACFD2946204603F0C6
:1022DC00CCF9206802F070F8002084F8A80238BD10
:1022EC000220FCE710B590F8A8220446012A0BD076
:1022FC00012280F8241080F8A822006802F056F819
:10230C00002084F8A80210BD0220FCE72DE9F04F54
:10231C00044685B0006802F053F810F4004500F054
:10232C002484DFF81C93DFF81C832068B0F8443059
:10233C001F0402D405B0BDE8F08FB0F84460B1B210
:10234C0016F00F0640F0C68011F010012BD1038857
:10235C009BB203EA090343F400430380B0F8503006
:10236C0094F828209BB203EBC20300EB4303B3F8B1
:10237C000434E26BC3F309031A4463642046E2633A
:10238C0003F097F894F82430002BCED0226C2168FF
:10239C00002ACAD194F8243043F08003A1F84C30C1
:1023AC0084F82420C1E70588ABB215F4006521D070
:1023BC00B0F8503094F868219BB203EBC20300EBE9
:1023CC004303B3F80C34B4F86E21C3F30903C4F817
:1023DC00843104F52C7102F021FA2268204613880E
:1023EC0023F070031B051B0D43F08003138003F0D7
:1023FC0051F89AE7190498D5038823F070031B054C
:10240C001B0D43F080030380B0F8503094F8682122
:10241C009BB203EBC20300EB4303B3F80C34C3F3DE
:10242C000903C4F884318BB1D4F87C1171B1B4F8C0
:10243C006E2102F0F3F9D4F87C31D4F884212946CA
:10244C0013442046C4F87C3103F02AF821680A882A
:10245C0093B212053FF569AF03F44053B3F5405FF7
:10246C003FF463AFB1F8503001F20C409BB2C25A4A
:10247C00C2F30902C252D4F878213E2A0CD955096C
:10248C00D706C25A08BF05F1FF3592B242EA85223F
:10249C0042EA080292B204E09AB9C25A92B242F4E9
:1024AC000042C2520B8823F4804323F070031B04B8
:1024BC001B0C83F4405343F4004343F080030B8024
:1024CC0033E75508D607C25A48BF013592B242EAE3
:1024DC008522DFE730F826301A049FB240F1F180F4
:1024EC00282130F8263001FB064123F070031B0530
:1024FC001B0D43F0800320F8263091F8743100F561
:10250C00806CB3B9B0F8503091F868219BB20633A7
:10251C0003EBC2033CF81350C5F30905002D00F082
:10252C00B4802B46B1F86E21D1F87C1102F076F90B
:10253C00ABE091F86B2191F86831022A40F084806D
:10254C00B0F850504FEAC30BADB217F4804AD1F833
:10255C0080215D4407F0400E39D002353CF815500F
:10256C00C5F30905954213D90022C1F8802130F832
:10257C00232022F4804222F070021204120C82F406
:10258C00005242F4004242F0800220F8232004E082
:10259C00521BC1F88021002AE9D0BEF1000F0DD0EA
:1025AC0030F8232022F4E04222F070021204120CC4
:1025BC0042F4004242F0C00220F82320002D64D0E7
:1025CC00282101FB06412B46B1F87021ACE70635FA
:1025DC003CF81550C5F30905954212D9C1F880A1F4
:1025EC0030F8232022F4804222F070021204120CE4
:1025FC0082F4005242F4004242F0800220F8232080
:10260C0004E0521BC1F88021002AE9D0BEF1000F72
:10261C000DD130F8232022F4E04222F07002120493
:10262C00120C42F4004242F0C00220F8232065B3A1
:10263C00282101FB06412B46B1F8722174E700BF3B
:10264C000F8FFFFF0080FFFF30F8232022F4E042C1
:10265C0022F070021204120C42F4004242F0C0024A
:10266C0020F8232091F8682130F82230D20013F49E
:10267C00804FB0F850309BB255D0023313443CF825
:10268C001350C5F30905002D9DD128217143631802
:10269C00D3F884212A44C3F88421D3F87C212A441A
:1026AC00C3F87C21D3F880211AB1D3F878319D423C
:1026BC0042D2282303FB0643204693F8681102F00C
:1026CC00EFFE3B0620687FF530AE282230F826302E
:1026DC0002FB06459BB203EA090343F4004320F8CE
:1026EC00263095F82B30012B50D1002195F8343041
:1026FC00296493B317F0400795F8292095F82830F2
:10270C0031D002BBB0F850201B0192B200F2044051
:10271C0010441A5AC2F309021A521A5A92B242F4CB
:10272C0000421A5219E006331A443CF81250C5F311
:10273C000905002DA9D07EE701F5B471206821446C
:10274C0001F054FEBDE7012A07D1B0F8502000F289
:10275C00044092B21B011044195295F828102046DF
:10276C0002F0A7FEE1E532B9B0F850201B0192B29D
:10277C0000F20C40CCE7012AEFD1B0F8502000F267
:10278C000C4092B21B0110441F52E6E795F828103A
:10279C0017F4807C2B6C4FEAC10A00F5806E1BD1BC
:1027AC00B0F85070BFB2574402373EF81770C7F3F9
:1027BC0009079F4202D3C5F840C0D0E7DB1B2B644E
:1027CC00EB6B06FB02223B44EB636B6CA1183B44A6
:1027DC006B6401F00BFEA8E5B0F8502017F0400C2C
:1027EC0092B2524407F4804700F0DC8002323EF88B
:1027FC0012204FF0280CC2F309029A4228BF002382
:10280C000CFB064C38BF9B1ACCF84030BFB2002BE7
:10281C004DD195F82920002A36D1B0F8502000F27D
:10282C00044692B20B011644F25AC2F30902F25258
:10283C00F25A92B242F40042F252B0F8502000F236
:10284C000C4092B21044C25AC2F30902C252C25A8C
:10285C0092B242F40042C252204602F02AFE002FED
:10286C0000F0DC8095F82810226832F8213023F42F
:10287C00E04323F070031B041B0C43F4404343F070
:10288C00800322F82130C9E0012AE5D1B0F850C00C
:10289C0000F204461FFA8CFC0A016644B352B0F8ED
:1028AC00506000F20C40B6B230448352D4E76FB1A2
:1028BC0030F8213023F4E04323F070031B041B0C8D
:1028CC0043F4404343F0800320F82130282707FBD2
:1028DC00064797F84C30012B40F0A080FB6BD7F8E3
:1028EC0048E003EB020C7B6CC7F83CC013447B64E0
:1028FC00BB6B9E452CD3AEEB0302BA6495F8292032
:10290C001FFA83FE002A41D1B0F8507000F2044245
:10291C00BFB23A440901575A3E2BC7F30907575225
:10292C0023D9DF06575A4FEA531A08BF0AF1FF3A68
:10293C00BFB247EA8A2747EA0807BFB25752282294
:10294C007346614602FB0642128E01F03FFD65E0C4
:10295C00BEF1000F03D1134687F84CE0CEE70023FD
:10296C0087F84C30BB647346C8E72BB9535A9BB2FB
:10297C0043F400435352E2E75F08DB07535A48BF66
:10298C0001379BB243EA87239BB2F3E7012AD6D1E6
:10299C00B0F8502000F2044392B21344090123F81A
:1029AC0001E0CCE706323EF81220BFB2C2F30902B6
:1029BC009A4288BF63464FF0280C0CFB064C98BF1C
:1029CC009B1ACCF84030002B4ED195F82920002AC8
:1029DC0037D1B0F8502000F2044692B20B011644E5
:1029EC00F25AC2F30902F252F25A92B242F4004283
:1029FC00F252B0F8502000F20C4092B21044C25A7D
:102A0C00C2F30902C252C25A92B242F40042C252FA
:102A1C00204602F04EFD002F3FF424AF95F828100D
:102A2C00226832F821309BB223F4E04323F04003B8
:102A3C0083F0300343F4004343F0800322F8213049
:102A4C0073E4012AE4D1B0F850C000F204461FFA36
:102A5C008CFC0A016644B352B0F8506000F20C4092
:102A6C00B6B230448352D3E76FB930F8213023F437
:102A7C00E04323F070031B041B0C43F4404343F06E
:102A8C00800320F821304FF0280C0CFB064C9CF8EE
:102A9C004C30012BC2D1DCF84430DCF83C701344D0
:102AAC00DCF848E0CCF84430DCF8383017449E456C
:102ABC00CCF83C7027D3AEEB0302CCF8482095F849
:102ACC0029201FFA83FC002A43D1B0F850E000F211
:102ADC000C421FFA8EFE7244090132F801E03E2BC3
:102AEC00CEF3090E22F801E01BD94FEA531EDB0688
:102AFC00535A08BF0EF1FF3E9BB243EA8E2343EAC2
:102B0C0008039BB212E0BEF1000F03D113468CF800
:102B1C004CE0D4E70023CCF848308CF84C307346AA
:102B2C00CDE75BB9535A9BB243F40043535228236D
:102B3C0003FB064639466346728E06E74FEA530E90
:102B4C00DB07535A48BF0EF1010E9BB243EA8E23AA
:102B5C00D7E7012AEBD1B0F8502000F20C4392B227
:102B6C0013440A0123F802C0E1E7460512D5226896
:102B7C002046B2F8443023F480631B041B0CA2F8EB
:102B8C00443002F0A2FC2946204605B0BDE8F04FC7
:102B9C00FFF7A8BB41040AD52268B2F8443023F4ED
:102BAC0080431B041B0CA2F84430FFF7C3BB820408
:102BBC0005D52268B2F8443023F40053F1E7C3047E
:102BCC0019D522682046B2F8403023F004031B04C8
:102BDC001B0CA2F84030B2F8403023F008031B0461
:102BEC001B0CA2F8403002F093FC2268B2F844307F
:102BFC0023F48053D5E7070548D568462268064676
:102C0C001146134602F1200533F8047B9D4226F849
:102C1C00027BF9D1B2F840309BB243F00103A2F829
:102C2C004030B2F8403023F001031B041B0CA2F817
:102C3C004030B2F844305E05FBD5B2F8443023F492
:102C4C0080631B041B0CA2F8443030F8023B21F8C3
:102C5C00043B8D42F9D1B2F8403020469BB243F090
:102C6C000803A2F84030B2F8443023F400631B048C
:102C7C001B0CA2F84430B2F840309BB243F0040372
:102C8C00A2F8403002F034FCFFF754BB82050DD59E
:102C9C0022682046B2F8443023F400731B041B0C4A
:102CAC00A2F8443002F00DFCFFF744BBC3057FF5DE
:102CBC0041AB2268B2F8443023F4807371E700BF53
:102CCC0011F0800F70B5054601F007004FF0280198
:102CDC001AD0012400FB011129444C70022BCB703B
:102CEC0008BF0023087008BF0B710A6195F8A83261
:102CFC00012B13D00123286885F8A83201F0BAF80B
:102D0C00002085F8A80270BD002601FB00F404F534
:102D1C00B4712C44294484F86961DFE70220F2E79E
:102D2C0011F0800F10B501F0070204464FF0280196
:102D3C0013D0012302FB011101444B700A7094F86B
:102D4C00A832012B13D00123206884F8A83201F09B
:102D5C00F1F9002084F8A80210BD01FB02F303F581
:102D6C00B47101440344002083F86901E6E70220B2
:102D7C00F2E770B52824002601F007014C43051931
:102D8C0085F8681104F5B4710144C5E95F23C5F8F1
:102D9C00846185F86961006801F028FB304670BDDC
:102DAC00282301F0070103FB0100D0F884017047D0
:102DBC0070B501F00705282101FB05040026C4E9C4
:102DCC000F23012205FB011184F84C200144A3645C
:102DDC00666484F8292084F82850006801F006FB0A
:102DEC00304670BD38B5436801F007059D42044676
:102DFC0028D811F0800F4FF028031AD005FB0333AD
:102E0C00C11801234B7001230D708B7094F8A8220C
:102E1C009A4219D0206884F8A83201F05EFA25B9DC
:102E2C00206804F52C7101F0CFFA002084F8A80278
:102E3C0038BD00224B4303F5B4710344014483F8BD
:102E4C006921E0E70120F3E70220F1E738B5436898
:102E5C0001F00F029A42044626D811F0800F01F0BF
:102E6C0007024FF0280115D0012302FB0111014488
:102E7C004B7000250A708D7094F8A832012B15D078
:102E8C000123206884F8A83201F047FA284684F818
:102E9C00A85238BD01FB02F303F5B471014403449D
:102EAC00002083F86901E4E70120F2E70220F0E753
:102EBC0010B5282411F0800F1BBF01F0070101FB96
:102ECC00044404FB0100001908BF00F5B47099B26A
:102EDC001AB90273C180002010BD012283600273F5
:102EEC00F9E700002DE9F341054638B30368DB0729
:102EFC0010D42B689F075ED42B68190700F19580BE
:102F0C002B685A0700F1C180E869002840F02C8139
:102F1C00002029E0904C636803F00C03042B07D0CD
:102F2C00636803F00C03082B0AD16368DE0307D532
:102F3C0023689C03DDD56B68002BDAD1012013E0EC
:102F4C006B68B3F5803F12D1236843F48033236060
:102F5C00FEF780FF064623689803CAD4FEF77AFF73
:102F6C00801B6428F7D9032002B0BDE8F0819BB91F
:102F7C00236823F480332360236823F480232360A5
:102F8C00FEF768FF064623689903B2D5FEF762FF89
:102F9C00801B6428F7D9E6E7B3F5A02F236803D18B
:102FAC0043F480232360CFE723F48033236023682A
:102FBC0023F48023CBE7684C636813F00C0F07D025
:102FCC00636803F00C03082B10D16368DA030DD48B
:102FDC0023689B0702D52B69012BAFD123686A6943
:102FEC0023F0F80343EAC203236085E72A695B4BAD
:102FFC006AB101221A60FEF72DFF064623689F076F
:10300C00ECD4FEF727FF801B0228F7D9ABE71A6038
:10301C00FEF720FF0646236898077FF56DAFFEF795
:10302C0019FF801B0228F6D99DE7AA694A4E4B4B23
:10303C00E2B10122C3F88024FEF70CFF0446736A48
:10304C009B070DD54FF4FA52454B1B68B3FBF2F3BB
:10305C00019300BF019B5A1E0192002BF9D14FE73F
:10306C00FEF7F8FE001B0228E9D97CE7C3F88024A0
:10307C00FEF7F0FE0446736A9F077FF541AFFEF73B
:10308C00E9FE001B0228F6D96DE7334CE369D80042
:10309C0024D40127E36943F08053E361E36903F02F
:1030AC0080530093009B2F4E3368D90518D5EB68DD
:1030BC00012B26D1236A43F001032362FEF7CAFEDB
:1030CC0041F288380646236A9B073FD5002F3FF410
:1030DC001BAFE36923F08053E36115E70027E2E7B8
:1030EC00336843F480733360FEF7B4FE8046336874
:1030FC00DA05DCD4FEF7AEFEA0EB08006428F6D9A6
:10310C0031E7ABB9236A41F2883823F0010323621B
:10311C00236A23F004032362FEF79CFE0646236A0F
:10312C009807D3D5FEF796FE801B4045F7D91AE7D2
:10313C00052B236A03D143F004032362BAE723F07F
:10314C0001032362236A23F00403B6E7FEF782FE31
:10315C00801B4045B7D906E70010024000004242F0
:10316C0010000020007000402A4C636803F00C0330
:10317C00082B3ED00022284B02281A662CD1FEF7D1
:10318C0069FE06462368990120D42B6AB3F5803F6B
:10319C0005D16268A96822F400320A436260696A48
:1031AC0062680B4322F474121343012263601A4BBE
:1031BC001A66FEF74FFE054623689A013FF5A8AE46
:1031CC00FEF748FE401B0228F6D9CCE6FEF742FE7D
:1031DC00801B0228D6D9C6E6FEF73CFE05462368BE
:1031EC009B017FF595AEFEF735FE401B0228F6D904
:1031FC00B9E601283FF4B8AE63682A6A03F480315B
:10320C0091427FF49BAE6A6A03F4701393423FF4CD
:10321C007FAE93E600100240000042420D4A536814
:10322C0003F00C01082912D10B48C3F38341DB03D3
:10323C00405C09D55368094AC3F340435043084ADC
:10324C00D35CB0FBF3F07047064B58437047034810
:10325C00704700BF00100240505B000800127A005B
:10326C00605B000800093D002DE9F0410D46044665
:10327C0010B90120BDE8F081444A136803F007033C
:10328C008B4228D321688E0730D4CA0743D43F4AD7
:10329C00136803F00703AB4265D822683C4D12F06B
:1032AC00040F6CD1130706D56B68226923F46053A5
:1032BC0043EAC2036B60FFF7B1FF6B68354AC3F397
:1032CC000313D35CD840344B1860344B1868FEF7AA
:1032DC007FFD0020CEE7136823F007030B43136038
:1032EC00136803F007038B42C3D1CBE7284B11F0D3
:1032FC00040F1EBF5A6842F4E0625A60080742BFCE
:10330C005A6842F460525A605A68A06822F0F0027F
:10331C0002435A60B9E762681D4E012A33681AD11C
:10332C0013F4003FA5D0736841F2883823F00303EF
:10333C0013437360FEF78EFD07467368626803F0F3
:10334C000C03B3EB820FA2D0FEF784FDC01B4045EB
:10335C00F3D903208EE7022A02D113F0007FE1E7B4
:10336C0013F0020FDEE7136823F007032B431360FF
:10337C00136803F00703AB427FF47BAF8DE76B68F8
:10338C00E16823F4E0630B436B608BE700200240A1
:10339C0000100240385B00081000002018000020CC
:1033AC00044B054A5B68C3F30223D35C034A1068E1
:1033BC00D840704700100240485B00081000002005
:1033CC00044B054A5B68C3F3C223D35C034A106801
:1033DC00D840704700100240485B000810000020E5
:1033EC0003682DE9F341D907054621D5364CE3692D
:1033FC00DA0033D40126E36943F08053E361E369D7
:10340C0003F080530193019B304F3B68DB0527D5BC
:10341C00236A6A6813F4407336D1236A6A6823F40A
:10342C004073134323621EB1E36923F08053E361BD
:10343C002868830706D52449AB684A6822F44042C1
:10344C001A434A6010F010001BD01F4AE9685368F9
:10345C00002023F480030B43536012E00026D3E7D3
:10346C003B6843F480733B60FEF7F4FC80463B689A
:10347C00D805CDD4FEF7EEFCA0EB08006428F6D9F5
:10348C00032002B0BDE8F08102F440729A42C4D02D
:10349C0001200F4A236AC2F84004002023F4407133
:1034AC00C2F840042162D907B7D5FEF7D3FC41F22C
:1034BC0088380746236A9A07AFD4FEF7CBFCC01BAB
:1034CC004045F7D9DCE700BF001002400070004017
:1034DC000000424290F83D30012B1CD102230F4AD0
:1034EC0080F83D30036893420AD0B3F1804F07D087
:1034FC00A2F59432934203D002F58062934204D138
:10350C009A6802F00702062A03D01A6842F00102F8
:10351C001A60002070470120704700BF002C01404A
:10352C0090F83D30012B20D1022380F83D30036808
:10353C00DA6842F00102DA600D4A93420AD0B3F124
:10354C00804F07D0A2F59432934203D002F58062EB
:10355C00934204D19A6802F00702062A03D01A6833
:10356C0042F001021A60002070470120704700BF32
:10357C00002C01407047704770477047036810B5C6
:10358C001A69044691070ED5DA6892070BD56FF0CD
:10359C0002021A61012202779B699B0777D0FFF721
:1035AC00EAFF0023237723681A69500710D5DA68DD
:1035BC0051070DD56FF004021A61022222779B6924
:1035CC00204613F4407F68D0FFF7D5FF0023237704
:1035DC0023681A6912070FD5DA6810070CD56FF03B
:1035EC0008021A6104222277DB69204699075AD017
:1035FC00FFF7C1FF0023237723681A69D20610D581
:10360C00DA68D0060DD56FF010021A610822227705
:10361C00DB69204613F4407F4BD0FFF7ACFF00234F
:10362C00237723681A69D10708D5DA68D20705D53C
:10363C006FF0010220461A61FDF764FD23681A69D8
:10364C00100608D5DA68110605D56FF08002204601
:10365C001A6100F06CF923681A69520608D5DA6809
:10366C00500605D56FF0400220461A61FFF785FF22
:10367C0023681A69910622D5DA6892061FD56FF075
:10368C0020022046BDE810401A6100F04FB9FFF748
:10369C0071FF2046FFF770FF83E7FFF76BFF2046B3
:1036AC00FFF76AFF92E7FFF765FF2046FFF764FF1D
:1036BC00A0E7FFF75FFF2046FFF75EFFAFE710BD07
:1036CC001A4A036890420AD0B0F1804F07D0A2F595
:1036DC009432904203D002F58062904215D14A6830
:1036EC0023F070031343114A90420AD0B0F1804F7B
:1036FC0007D0A2F59432904203D002F5806290423A
:10370C0003D1CA6823F4407313434A6923F080033E
:10371C00134303608B68C3620B688362034B98424C
:10372C0004BF0B690363012343617047002C014004
:10373C0010B5044630B390F83D3003F0FF021BB9CE
:10374C0080F83C20FEF78EFA0223206884F83D3086
:10375C00211DFFF7B5FF0123002084F8463084F8C3
:10376C003E3084F83F3084F8403084F8413084F89F
:10377C00423084F8433084F8443084F8453084F87F
:10378C003D3010BD0120FCE710B584680A4324F4D9
:10379C007F4442EA03222243826010BD38B590F880
:1037AC003C300446012B4FF0020000F08E800122C9
:1037BC0084F83D00206884F83C20836823F47F4320
:1037CC0023F0770383600B68602B4FD032D8402BEB
:1037DC0064D016D8202B0DD00AD833F0100109D0A4
:1037EC00012384F83D30002384F83C30104638BD6A
:1037FC00302BF5D1826822F07002134343F007039B
:10380C0028E0502BECD14A68CD68016A036A21F09C
:10381C000A0123F00103036283690A4323F0F003D6
:10382C0043EA051383610262836823F0700343F05B
:10383C0057030FE0B3F5805F0DD0B3F5005F0CD0EC
:10384C00702BCDD1CB68D1E90121FFF79DFF8368A7
:10385C0043F0770383600022C2E7CB68D1E90121F2
:10386C00FFF792FF836843F48043F3E7036A026A2D
:10387C004D6822F01002C9680262826923F0A0032D
:10388C0022F4704243EA051342EA01328261036278
:10389C00836823F0700343F06703DBE74A68CD6865
:1038AC00016A036A21F00A0123F0010303628369B0
:1038BC000A4323F0F00343EA051383610262836831
:1038CC0023F0700343F04703C4E702468EE7000081
:1038DC0030B590F83C300246012B4FF0020022D05C
:1038EC00136882F83D005C680D6824F070042C436A
:1038FC0098685C600C4CA3420AD0B3F1804F07D09F
:10390C00A4F59434A34203D004F58064A34204D1FB
:10391C00496820F08000014399600123002082F85F
:10392C003D3082F83C0030BD002C014070477047A0
:10393C00026802F10C0353E8003F23F490730C323D
:10394C0042E8003102680029F2D102F1140353E875
:10395C00003F23F0010302F1140C4CE80031002964
:10396C00F3D1036B012B0BD102F10C0353E8003F95
:10397C0023F0100302F10C0C4CE800310029F3D1B8
:10398C00202380F8423000230363704710B50446AF
:10399C000368C1681A6922F440520A431A618268AA
:1039AC000069D9680243606921F4B05121F00C011F
:1039BC0002430A43DA605A69A16922F440720A434D
:1039CC005A610E4A934215D1FFF7FAFC192343436F
:1039DC00626820689200B3FBF2F36422B3FBF2F14D
:1039EC0002FB11331B013233B3FBF2F303EB011374
:1039FC00836010BDFFF7D4FCE8E700BF003801403E
:103A0C0010B5044648B390F8413003F0FF021BB9DF
:103A1C0080F84020FEF756F92423226884F84130C0
:103A2C00D368204623F40053D360FFF7AFFF23681D
:103A3C0000201A6922F490421A615A6922F02A0273
:103A4C005A61DA6842F40052DA602023606484F828
:103A5C00413084F84230606310BD0120FCE77047B0
:103A6C00704708B50023406AC385C384FFF7F8FF8D
:103A7C0008BD704790F8423007B5222B42D18168BF
:103A8C00836AB1F5805F02683FD1016900293FD19B
:103A9C005268C2F3080223F8022B8362C38D013BE8
:103AAC009BB2C385002B2DD10268D16821F0200177
:103ABC00D160D16821F48071D160516921F001018C
:103ACC005161202280F842204363026B012A026874
:103ADC0028D1036302F10C0353E8003F23F01003D9
:103AEC0002F10C0C4CE800310029F3D11368DB0611
:103AFC0005D501911368019353680193019B818D46
:103B0C00FFF7B7FF03B05DF804FB39B9016929B9B8
:103B1C005268D2B21A70836A0133BEE7526802F05F
:103B2C007F02F7E7FDF704FBECE70000036873B5D1
:103B3C001A6804461607D9685D6908D1960668D5D7
:103B4C008D0666D502B0BDE87040FFF793BF05F057
:103B5C00010001F4907505435BD0D60705D5CD0562
:103B6C0042BF636C43F001036364530704D518B17F
:103B7C00636C43F002036364960704D518B1636C5D
:103B8C0043F004036364150707D501F020030343D6
:103B9C001EBF636C43F008036364636C002B32D06C
:103BAC00920604D58B0602D52046FFF763FF2668E4
:103BBC0020467369626C03F0400302F0080253EA7A
:103BCC00020522D0FFF7B4FE73695E0618D5226891
:103BDC0002F1140353E8003F23F04003143242E88F
:103BEC0000310029F3D1E06B50B1744B4363FEF705
:103BFC00BBF940B1E06B436B02B0BDE870401847B5
:103C0C002046FFF72DFF02B070BDFFF729FF65645A
:103C1C00F9E7206B012840F09480D50640F19180A3
:103C2C00C80640F18E80002201921A6801925A68EF
:103C3C000192019A5A6952064DD5E16B0A68526895
:103C4C0092B2002ADFD0A08D9042DCD9E2858A693D
:103C5C00202A36D003F10C0252E8002F22F4807295
:103C6C0003F10C0040E800210029F3D103F1140208
:103C7C0052E8002F22F0010203F1140040E8002169
:103C8C000029F3D103F1140252E8002F22F0400274
:103C9C0003F1140040E800210029F3D1202284F81C
:103CAC004220216303F10C0252E8002F22F0100293
:103CBC0003F10C0040E800210029F3D1E06BFEF782
:103CCC0033F902236363E38DA18DC91A89B22046AF
:103CDC00FFF7CFFE97E7E28DE08DA18D80B292B217
:103CEC00002890D0891A89B200298CD003F10C02DB
:103CFC0052E8002F22F4907203F10C0545E80020E5
:103D0C000028F3D103F1140252E8002F22F0010233
:103D1C0003F1140545E800200028F3D1202284F893
:103D2C004220206303F10C0252E8002F22F0100213
:103D3C0003F10C0545E800200028F3D1022363634E
:103D4C00C5E7160628D50D0626D594F84120212A5C
:103D5C007FF459AFA168226AB1F5805F17D1216950
:103D6C00A9B932F8021BC1F3080159602262E28C36
:103D7C00013A92B2E284002A7FF445AFDA6822F06D
:103D8C008002DA60DA6842F04002DA603BE7511CEC
:103D9C00216212785A60EAE750067FF534AF4A0682
:103DAC007FF531AFDA68204622F04002DA6020233A
:103DBC0084F84130FFF753FE25E700BF6F3A000847
:103DCC000023C285436422238285026980F8423035
:103DDC00816203681AB1DA6842F48072DA605A6957
:103DEC00002042F001025A61DA6842F02002DA60E7
:103DFC00704770B490F84260202E06D141B13AB1B0
:103E0C000024046370BCFFF7DBBF022070BC70475A
:103E1C000120FBE784B001A880E80E0004B000206C
:103E2C00704703464FF43F420020A3F84400A3F828
:103E3C0040207047B0F8403023F47C535B045B0C9B
:103E4C00A0F84030002070470020704784B010B5B7
:103E5C00044603A880E80E0000200123A4F840309B
:103E6C00A4F84000A4F84400A4F85000BDE81040A9
:103E7C0004B07047F0B50A78CD7830F8224003468C
:103E8C0024F4EC4424F070042404240C032D4BD8AB
:103E9C00DFE805F002474543284644F4007448F235
:103EAC008006344323F8224033F822409E4FA4B2BC
:103EBC003C401443344323F822400C7B03EB021C9C
:103ECC00002C40F08B80CC884E78640864006EB374
:103EDC00B3F8501089B26144A1F8004433F82210B1
:103EEC00490609D533F8221089B2394041F4004112
:103EFC0041F0C00123F8221033F822108B4C89B208
:103F0C00012D01EA040101D081F0200141F40041AE
:103F1C0041F0800123F822104AE044F4C0640020F0
:103F2C00BDE744F48064FAE70120B8E7B3F85050D9
:103F3C000969ADB26544A5F80844B3F850403E2970
:103F4C00A4B26444B4F80C54C5F30905A4F80C5499
:103F5C002FD94D09CE06B4F80C1408BF05F1FF3566
:103F6C0089B241EA85216FEA41416FEA514189B238
:103F7C00A4F80C1433F822104F040DD533F822108A
:103F8C0021F4E04121F070010904090C41F4404195
:103F9C0041F0800123F82210654CC2B91A8892B204
:103FAC00224082F4405242F4004242F080021A80D5
:103FBC00F0BD11B9B4F80C14D5E74D08C907B4F825
:103FCC000C1448BF013589B241EA8521CFE733F89B
:103FDC00221089B2214081F4005197E7022D33F869
:103FEC0022405BD1A4B23C4044F4014444F0800430
:103FFC0023F82240B3F850400E89A4B276086444EA
:10400C007600A4F800644E89B3F850407608A4B248
:10401C0064447600A4F808644978002948D133F840
:10402C0022104E040DD533F8221021F4E04121F07A
:10403C0070010904090C41F4404141F0800123F85E
:10404C00221033F822104D060DD533F8221021F42E
:10405C00E04121F070010904090C41F4004141F0E8
:10406C00C00123F8221048F2800433F8221021F406
:10407C00804121F070010904090C81F44051214365
:10408C0023F8221033F8221021F4E04121F04001F2
:10409C000904090C0C4323F8224089E724F4E24478
:1040AC0024F070042404240C264323F82260A1E796
:1040BC0033F822104C040DD533F8221021F4E041D2
:1040CC0021F070010904090C41F4404141F08001D8
:1040DC0023F8221033F8221049060DD533F822109C
:1040EC0021F4E04121F070010904090C41F4004174
:1040FC0041F0C00123F8221033F822100B4C89B286
:10410C002140012D18BF81F0200141F4004141F004
:10411C00800123F8221033F8221021F4804121F081
:10412C0070010904090CF1E68F8FFFFFBF8FFFFFB1
:10413C008FBFFFFF4A780B78097BD9BB0AB330F8E5
:10414C00232051060DD530F8232022F4E04222F032
:10415C0070021204120C42F4004242F0C00220F829
:10416C00232030F8232022F4E04222F040021204F3
:10417C00120C42F4004242F0800220F8232000206E
:10418C00704730F8232052040DD530F8232022F448
:10419C00E04222F070021204120C42F4404242F04F
:1041AC00800220F8232030F8232022F4804222F0D1
:1041BC007002DCE7002A4AD130F8232051040DD5D7
:1041CC0030F8232022F4E04222F070021204120C88
:1041DC0042F4404242F0800220F8232030F82320A1
:1041EC0052060DD530F8232022F4E04222F0700262
:1041FC001204120C42F4004242F0C00220F82320B8
:10420C0048F2800130F8232022F4E04222F07002C0
:10421C001204120C42F4004242F0C00220F8232097
:10422C0030F8232022F4804222F070021204120C87
:10423C000A4320F8232030F8232022F4E04222F015
:10424C0040021204120C114320F8231097E730F8A7
:10425C00232051040DD530F8232022F4E04222F023
:10426C0070021204120C42F4404242F0800220F818
:10427C00232030F8232052060DD530F8232022F4C9
:10428C00E04222F070021204120C42F4004242F09E
:10429C00C00220F8232048F2800130F8232022F4B9
:1042AC00E04222F070021204120C42F4404242F03E
:1042BC00800220F8232030F8232022F4E04222F060
:1042CC0040021204120C0A4320F8232030F8232059
:1042DC0022F4804222F07002B3E74B780A788BB15B
:1042EC0030F8223023F4E04323F040031B041B0C72
:1042FC0083F0100343F4004343F0800320F8223092
:10430C000020704730F8223023F4804323F07003F0
:10431C001B041B0C83F48053ECE70B7B3BBB4B78EF
:10432C000A7833B330F822305B060DD530F82230E2
:10433C0023F4E04323F070031B041B0C43F40043F1
:10434C0043F0C00320F82230CB78012B0FD030F88B
:10435C00223023F4E04323F040031B041B0C83F0B6
:10436C00200343F4004343F0800320F82230002064
:10437C00704730F822305B040DD530F8223023F42E
:10438C00E04323F070031B041B0C43F4404343F045
:10439C00800320F8223030F8223023F4804323F0BD
:1043AC0070031B041B0C83F44053DAE711B9802310
:1043BC00A0F84C3000207047002070470020704758
:1043CC00B0F8440080B270470020704700EB420008
:1043DC00013300F580605B0800EB8303834200D15E
:1043EC00704731F8022B20F8042BF7E72DE9F04742
:1043FC000C46497805460129227B40F01881D4F8F7
:10440C001090A76961694F4528BF4F460ABBBFB2E0
:10441C00E2883B46FFF7DAFFB5F85000217880B20E
:10442C0005F20442090102448F52227835F82230F9
:10443C0023F4E04323F040031B041B0C83F03003F4
:10444C00002043F4004343F0800325F82230BDE8FC
:10445C00F087E37894F800E0022B266A4FEA0E1CF2
:10446C0040F0D080B14530F82E2080F0B48022F49A
:10447C00E04222F070021204120C42F4014242F0AB
:10448C00800220F82E2030F82E80B0F850E0F61B79
:10449C0018F04008266201EB070ABBB21FFA8EFE29
:1044AC004ED000F20C42724422F80C306289FFF7B5
:1044BC008DFFB14536BFF31B00233E466278236265
:1044CC00C4F814A0B3B27ABBB5F85020207892B2DD
:1044DC0005F2044100011144425A3E2EC2F3090276
:1044EC00425215D9F206425A4FEA561708BF07F145
:1044FC00FF3792B242EA87226FEA42426FEA524297
:10450C0092B24252228951462846FFF75FFF8CE750
:10451C000EB9425AF0E7425A7708F60748BF0137FE
:10452C0092B242EA8722EBE7012AEBD1B5F85000B0
:10453C00217880B205F20442090102448B52E1E772
:10454C0000F20442724422F80C302289FFF73EFF3D
:10455C00B14536BFF31B43463E4662782362C4F82E
:10456C0014A0B3B25ABBB5F85020207892B205F221
:10457C000C4100011144425A3E2EC2F30902425230
:10458C0011D9F206425A4FEA561708BF07F1FF3706
:10459C0092B242EA87226FEA42426FEA524292B2E8
:1045AC0042526289AFE70EB9425AF4E7425A770891
:1045BC00F60748BF013792B242EA8722EFE7012A99
:1045CC00EFD1B5F85000217880B205F20C42090108
:1045DC0002448B52E5E722F4E24222F0700212040C
:1045EC00120C42F4004242F0800220F82E20B0F867
:1045FC00503000F204429BB21A44B3B222F80C3091
:10460C00228982E730F82E20F61B2662B0F8506023
:10461C005206BBB2B6B206D500F20C42324422F8B6
:10462C000C30628971E700F204423244E6E7D2B9F9
:10463C00A3692169B0F850008B4284BF5A1A0B460B
:10464C002178A26180B205F20C4209010244505A51
:10465C003E2BC0F30900505200F2C580002B40F0F5
:10466C00D280535AC8E0E378022B7CD100294BD17D
:10467C00B0F8503020789BB205F204410001194487
:10468C00435AC3F30903435223693E2B20D9425AA0
:10469C005E09DF0608BF06F1FF3692B242EA8622B7
:1046AC006FEA42426FEA524292B24252B5F850005F
:1046BC00227880B205F20C4112010144505A3E2B73
:1046CC00C0F30900505210D8002B43D1535A15E0B7
:1046DC000BB9425AE4E7DA07425A4FEA530648BF8D
:1046EC00013692B242EA8622DEE75809DF06535AB7
:1046FC0008BF00F1FF309BB243EA80236FEA4343CB
:10470C006FEA53439BB25352E369BBB144F240038B
:10471C00227835F8221003EA01008B4300D068B9E7
:10472C0035F8223023F4E04323F070031B041B0CF8
:10473C0043F4004343F0C00325F82230227835F8C7
:10474C00223023F4804323F070031B041B0C83F4EE
:10475C00405375E65808DE07535A48BF01309BB2E8
:10476C0043EA8023CEE7012B56D1A36922699342F9
:10477C0094BF0020981AA06188BF13460029DDD190
:10478C00B5F85020207892B205F204410001114492
:10479C00425A3E2BC2F30902425218D9DA06425A47
:1047AC004FEA531608BF06F1FF3692B242EA862250
:1047BC006FEA42426FEA524292B24252B5F850004E
:1047CC00227880B205F20C41120101443FE70BB98B
:1047DC00425AEDE7425A5E08DF0748BF013692B2F3
:1047EC0042EA8622E8E75809DE06535A08BF00F170
:1047FC00FF309BB243EA80236FEA43436FEA534393
:10480C009BB253529AE75808DB07535A48BF013002
:10481C009BB243EA8023F3E7012018E600EB420049
:10482C00F0B500F580605D080C4607462E46023454
:10483C0036B9DB0744BF30F8253001F81530F0BD30
:10484C0037F8042B013E92B204F8022C120A04F839
:10485C00012CECE7D0F8BC3210B56BB1D0F8B842F3
:10486C0094F80002FF2807D09B68214694F8012297
:10487C009847FF2384F80032002010BD43230380A7
:10488C0000487047540000204323038000487047C1
:10489C00980000204323038000487047E800002064
:1048AC000A23038000487047DC00002038B504461A
:1048BC00D0F8B85200F0CFFED4F8B832C5F80C02DC
:1048CC004BB1D4F8BC32D5F80402DB6805F50371A2
:1048DC009847002038BD0220FCE7F8B5D0F8B86244
:1048EC00D6B1142404FB0103DC69D0F8C0527CB1AE
:1048FC00282707FB0152926BB4FBF2F502FB15441F
:10490C0034B9DC612246234600F093FE2046F8BD04
:10491C000020C6F81402FAE70220F8E72DE9F74365
:10492C004FF000080A78054612F060040E46D0F8E5
:10493C00B8728DF80580ADF8068028D0202C42D1B5
:10494C00CC884B78E4B1120611D5D0F8BC2239468C
:10495C00D2F8089018462246C84739462846F288AD
:10496C0000F047FC4446204603B0BDE8F0832246E5
:10497C00394687F8003287F8014200F04FFCF1E726
:10498C00D0F8BC22184695682246A847EBE74B782E
:10499C000A2B0CD00B2B12D0ABB990F89C32032BFA
:1049AC0011D102220DF1060100F023FCDBE790F897
:1049BC009C32032B07D101220DF10501F4E790F88D
:1049CC009C32032BCFD03146284600F0EBFB02245F
:1049DC00C9E738B504460025812100F0F4FD01211A
:1049EC002046E56200F0EFFD82212046C4F86C51B0
:1049FC0000F0E9FDD4F8B83225644BB1D4F8BC32E0
:104A0C005B689847D4F8B80200F02EFEC4F8B85290
:104A1C00002038BD2DE9F041037C0446B3BB4FF4B4
:104A2C0000738121022200F0C2FD01214FF40073BA
:104A3C00E16201260222204600F0B9FD0823032280
:104A4C0082212046C4F86C6100F0B1FD4FF4077070
:104A5C00266400F005FE0546C4F8B80240B34FF0DA
:104A6C000008D4F8BC321B689847C5F81482C5F806
:104A7C001882277C9FB94FF4007331462046D5F835
:104A8C00042200F0DFFD3846BDE8F081402381218F
:104A9C00022200F08CFD01214023E162C9E7402392
:104AAC0031462046D5F8042200F0CCFD4746EAE713
:104ABC003746E8E719B1C0F8BC1200207047022055
:104ACC007047D0F8B8320020C3F80812C3F810228F
:104ADC007047D0F8B8320020C3F804127047D0F8F1
:104AEC00B82210B582B1D2F81442012374B9C2F8BD
:104AFC001432D2F8103281210363D2F808229BB20F
:104B0C0000F097FD204610BD0220FCE71846FAE79E
:104B1C00D0F8B82210B582B1047CD2F8042234B992
:104B2C004FF40073012100F08DFD204610BD402391
:104B3C00012100F087FD0024F7E70224F5E708B512
:104B4C0080B1D0F8B43213B10023C0F8B43209B13B
:104B5C00C0F8B0120123027080F89C3200F0DCFC2B
:104B6C00002008BD0220FCE719B1C0F8B4120020E7
:104B7C0070470220704708B500F010FD002008BDFA
:104B8C0008B5D0F8B43233B11B689847003818BF59
:104B9C000120400008BD0220FCE708B5D0F8B43273
:104BAC005B689847002008BD38B500F52A750446A7
:104BBC00284600F0E3FA012394F8A812C4F89432C2
:104BCC00B4F8AE32C4F8983201F01F03012B08D0B0
:104BDC00022B0BD07BB92946204600F0FBF80020B5
:104BEC0038BD2946204600F01DFAF8E72946204634
:104BFC0000F03CFAF3E7204601F0800100F0ECFCF9
:104C0C00EDE7F8B5044617460D4639BBD0F894329B
:104C1C00032B1CD1D0E9586296420BD9B61AB2427A
:104C2C003946C0F860618CBFB2B292B200F003FB9F
:104C3C002846F8BDD0F8B4321B6923B190F89C22F9
:104C4C00032A00D19847204600F0FDFAF0E7052B27
:104C5C00EED1C4F8941200F0BFFCE9E7D0F8B432FE
:104C6C009B6933B190F89C22032A02D19847002506
:104C7C00DEE70225DCE7F8B5044617460D460029A9
:104C8C0047D1D0F89432022B3CD1D0E908639E4234
:104C9C0014D9F61A39460662B2B200F0B7FA2B46AE
:104CAC002A462946204600F0CDFC94F8A032012B70
:104CBC0002D1002384F8A0322846F8BDC269B2FBA9
:104CCC00F3F603FB16265EB9934209D8D0F8983256
:104CDC009A4205D20A4600F099FAC4F89852DEE7D7
:104CEC00D4F8B432DB682BB194F89C22032A01D19E
:104CFC00204698478021204600F06EFC204600F0AC
:104D0C00ADFAD2E733F00403CFD1802100F064FC7C
:104D1C00CBE7D0F8B4325B6933B190F89C22032A0C
:104D2C0002D198470025C7E70225C5E7002270B5D8
:104D3C000446012540261146402300F038FC33463A
:104D4C00802100222046C4F85851C4F8646100F058
:104D5C002EFC0021D4F8B832A561666284F89C520E
:104D6C00C4F894126160C4F8A41223B1D4F8B4321C
:104D7C0020465B689847002070BD01740020704786
:104D8C0090F89C3280F89D32042380F89C320020ED
:104D9C00704790F89C32042B04BF90F89D3280F839
:104DAC009C320020704708B590F89C22032A04D14D
:104DBC00D0F8B432DB6903B19847002008BD10B5B8
:104DCC000446802100F008FC2046BDE8104000217C
:104DDC0000F002BC37B50B78044603F06003202BBF
:104DEC000D4612D0402B10D0002B51D14B78092BF3
:104DFC004ED8DFE813F0EE0009014D0002014D0022
:104E0C00870013004D00D600A300D4F8B432294615
:104E1C0020469B689847002003B030BD0023ADF8B6
:104E2C0006304B881A0A013A062A31D8DFE802F01C
:104E3C000416233030485200D0F8B0321B68207C66
:104E4C000DF106019847BDF80620EB88002A55D0D5
:104E5C00002B4AD1204600F0F6F9DCE7027CD0F8B2
:104E6C00B43232B99B6A0DF10600984702234370A5
:104E7C00E9E7DB6AF7E7DBB2052B09D8DFE803F0DB
:104E8C00030C1014181CD0F8B0325B68002BD6D170
:104E9C002046FFF794FFBEE7D0F8B0329B68F5E7E9
:104EAC00D0F8B032DB68F1E7D0F8B0321B69EDE72F
:104EBC00D0F8B0325B69E9E7D0F8B0329B69E5E72E
:104ECC00037C002BE4D1D0F8B4320DF106005B6BFF
:104EDC009847B8E7037C002BDAD1D0F8B4320DF147
:104EEC0006001B6B98470723C1E79A4228BF1A4656
:104EFC0001462046ADF8062000F07BF9EB88002B2C
:104F0C0089D1A7E78B88002BC2D1CB88002BBFD1CE
:104F1C004D887F2DBCD890F89C32032BB8D0E9B2C9
:104F2C0080F89E1200F07CFB204600F08CF91DB13D
:104F3C00022384F89C326EE70123FAE78978384D16
:104F4C0001292970A4D890F89C32022B08D0032B8D
:104F5C0015D0FFF734FF20462978FFF71EFE5AE7DD
:104F6C0000293FF477AF01210323416080F89C3284
:104F7C002046FFF705FE02287FF46CAF88E731B9B5
:104F8C000223416080F89C32FFF707FE62E741681C
:104F9C0001293FF45FAFC9B2FFF7FFFD29786160CB
:104FAC00E6E7CA88012A7FF473AF90F89C32022B93
:104FBC000AD8002B3FF46CAF0146002341F8083FA0
:104FCC00204600F016F926E7032B7FF461AF011D94
:104FDC00F6E790F89C32013B022B3FF659AFCA889A
:104FEC00022A7FF455AFD0F8A4320146002B14BF2F
:104FFC000323012341F80C3FE2E74B88012B7FF49C
:10500C000AAFC4F8A43225E790F89C32013B022B7E
:10501C003FF63EAF4B88012B7FF4FDAE0023F0E74B
:10502C00B00A002038B50B78044603F06002402A21
:10503C000D4601D05B0615D494F89C32013B022B33
:10504C0010D82B79012B0DD8D4F8B43229469B6893
:10505C0020469847EB881BB910B9204600F0F3F8AE
:10506C00002038BD2046FFF7AAFEF9E738B50A78CC
:10507C00044602F06002202A0B468D882CD0402A70
:10508C002AD0BABB5A78E9B2012A43D0032A2BD0D2
:10509C0082BB90F89C32022B53D0032B2AD11422C2
:1050AC0001F00F0315F0800F02FB03035AD09B692C
:1050BC0003B3142501F07F0303FB0555054411F0E0
:1050CC007F0005D0204600F099FA003818BF012067
:1050DC0002222946286041E0D4F8B4221946204621
:1050EC0092689047002038BD90F89C22022A1FD06D
:1050FC00032A03D02046FFF762FEF3E75A882AB949
:10510C004A0603D0DB880BB900F066FA204600F0A3
:10511C009AF8E7E790F89C22022A09D0032AE9D1F1
:10512C005B88002BDED14D06F0D000F05EFAEDE787
:10513C004B06DFD000F050FA8021204600F04CFAEC
:10514C00D0E74A06D6D12B064FF000034FF00202EF
:10515C004CBF00F1140100F5AA710B60204600F061
:10516C0048F8BFE7D3F85831002BC3D0142301F013
:10517C007F0503FB050505F5AA75A0E70B78037001
:10518C004B784370CA788B7803EB022343804A79BF
:10519C000B7903EB02238380CA798B7903EB02230F
:1051AC00C380704710B50446802100F015FA2046E4
:1051BC00BDE81040002100F00FBA30B588B10024D2
:1051CC00013823460134055D002DFAD1DBB20133E1
:1051DC005B0013800B7003234B70022310F8014FFC
:1051EC0004B930BD5A1CCC54D2B20233DBB28D544C
:1051FC00F4E71346022210B5C0E90733C0F8942235
:10520C000A46002100F015FA002010BD08B513461F
:10521C000A46002100F00DFA002008BD13460322B7
:10522C0010B5C0E95733C0F894220A46002100F0AB
:10523C0009FA002010BD08B513460A46002100F0FB
:10524C0001FA002008BD08B50423C0F894320023ED
:10525C001A46194600F0EDF9002008BD08B50523E3
:10526C00C0F8943200231A46194600F0EBF90020DE
:10527C0008BD000008B500220E490F48FFF75FFC7F
:10528C0008B1FCF7CBFC0D490B48FFF76DFC08B1DE
:10529C00FCF7C4FC0A490848FFF70CFC08B1FCF702
:1052AC00BDFC0548FFF767FC18B1BDE80840FCF7EA
:1052BC00B5BC08BD3C010020B40A00201C00002035
:1052CC002C0100200020704700207047074B10B5C0
:1052DC001B6804460BB10968984721460448FFF740
:1052EC00F8FB0348FFF714FC002010BD78150020D4
:1052FC00B40A002010B5064C002220460549FFF7E1
:10530C00E0FB20460449FFF7E4FB002010BD00BF82
:10531C00B40A002078110020780D002010B5094C3B
:10532C000A46D4F8B832D3F8143243B901462046B1
:10533C00FFF7C7FB2046BDE81040FFF7D0BB0120AC
:10534C0010BD00BFB40A0020014B1860704700BFAD
:10535C0078150020122301480B807047580100205B
:10536C00042301480B8070476C010020002370B5AA
:10537C001E464D1C040FB0F1204F34BF303437346F
:10538C0001F8134005F813600133DCB2A2424FEA76
:10539C000010EFD870BD00001A2310B50B800A4B1B
:1053AC00D3F8E807D3F8F02780180AD0D3F8EC47E5
:1053BC0006490822FFF7DAFF042220461031FFF7D6
:1053CC00D5FF034810BD00BF00F0FF1F7201002085
:1053DC007001002010B5044C0A4604482146FFF722
:1053EC00ECFE204610BD00BF7C150020625B00085F
:1053FC0010B5044C0A4604482146FFF7DEFE204651
:10540C0010BD00BF7C150020755B000810B5044C66
:10541C000A4604482146FFF7D0FE204610BD00BFC7
:10542C007C1500208B5B000810B5044C0A46044820
:10543C002146FFF7C2FE204610BD00BF7C150020A0
:10544C00965B000803289ABF014B185C022070473A
:10545C00A45B000807B50E4B02689A4215D103F500
:10546C00DA33DA69142042F40002DA610022DB69D3
:10547C00114603F400030193019BFCF703FD142078
:10548C0003B05DF804EBFCF72DBD03B05DF804FB35
:10549C00005C004000F52C71D0F8EC02FFF784BBE7
:1054AC00282303FB0103D0F8EC02D3F87C21FFF78F
:1054BC00A8BB282303FB0103D0F8EC02DA6BFFF73F
:1054CC00DABBD0F8EC02FFF76EBC836810B5022B88
:1054DC00044601D0FCF7A2FBD4F8EC020121FFF743
:1054EC004CFCD4F8EC02BDE81040FFF71FBC0000E8
:1054FC0010B50446D0F8EC02FFF742FCA36923B1C7
:10550C00024A136943F00603136110BD00ED00E07D
:10551C00D0F8EC02FFF73DBC082310B51D4A044639
:10552C001D48C0E90023022383600023C0F8EC422D
:10553C00C4F8C002C0E906330362FCF742FE08B1AE
:10554C00FCF76CFB002218231146D4F8C002FDF7BF
:10555C00AFFC582300228021D4F8C002FDF7A8FC30
:10556C00C02300228121D4F8C002FDF7A1FC4FF426
:10557C00887300220121D4F8C002FDF799FC4FF486
:10558C00807300228221D4F8C002FDF791FC002028
:10559C0010BD00BF005C00407C17002008B5D0F89F
:1055AC00C002FCF786FEBDE80840FFF74BBF10B504
:1055BC001446D0F8C0021A462346FDF781FBBDE81D
:1055CC001040FFF73FBF08B5D0F8C002FDF7A8FBAD
:1055DC00BDE80840FFF736BF08B5D0F8C002FDF7AC
:1055EC0001FCBDE80840FFF72DBF08B5D0F8C0029C
:1055FC00FDF72CFCBDE80840FFF724BF282211F072
:10560C00800FD0F8C0321BBF01F07F0101FB0222DA
:10561C0002FB01339B1814BF987893F86A0170470A
:10562C0008B5D0F8C002FCF75DFEBDE80840FFF7F6
:10563C0009BF08B5D0F8C002FDF7BAFBBDE80840B9
:10564C00FFF700BF08B5D0F8C002FDF792FBBDE82C
:10565C000840FFF7F7BED0F8C002FDF7A1BB000071
:10566C00004870476C1A002070477047931E222B1D
:10567C0010B50C4604D900231C460B70204610BDF7
:10568C000A2A09D1002807DA2D230B700121404288
:10569C00214400F005F8F1E70021F9E7FFF7E6BF38
:1056AC00F0B58BB005460B466E461D4C04F1200C34
:1056BC00374620686168083403C764453E46F7D115
:1056CC00217920683971911E222938604FF0000130
:1056DC0004D919700B4618460BB0F0BD581E844601
:1056EC00B5FBF2F702FB175628366E4416F8286CF9
:1056FC000C460CF8016F2E46B2423D4601F10101F9
:10570C00EED900225A541919A51AAA42E3DA10F854
:10571C00015F0E780132067001F80159F4E700BF01
:10572C00A85B000803460244934200D1704703F87B
:10573C00011BF9E7034610B5013932B111F8014FDD
:10574C00013A03F8014B002CF7D100211A44934283
:10575C0000D110BD03F8011BF9E7000070B500265D
:10576C000C4D0D4C641BA410A64209D100F022F87C
:10577C0000260A4D0A4C641BA410A64205D170BD2C
:10578C0055F8043B98470136EEE755F8043B98472B
:10579C000136F2E7D05B0008D05B0008D05B000854
:1057AC00D45B0008034611F8012B03F8012B002AE7
:1057BC00F9D17047F8B500BFF8BC08BC9E467047DD
:0C57CC00F8B500BFF8BC08BC9E46704752
:1057D800554450000D3E002B2644424753454E4445
:1057E800494E47204441544120002B264442475308
:1057F800454E44494E47204441544120425553594F
:105808000A002B26444247524553504F4E534520D9
:1058180043494653520A002B264442474552524FA9
:105828005220434946535220350A002B264442470A
:10583800524553504F4E5345204950440A002B2699
:1058480044424745535030314841524452455345EC
:1058580054300A002B2644424745535030314841C2
:1058680052445245534554310A002B264442474579
:105878005350303141540A002B2644424745535077
:105888003031415443574D4F44450A002B2644427A
:1058980047455350303141544349504D55580A00FB
:1058A8002B264442474553503031415443574A41CF
:1058B800500A002B2644424745535030314349464D
:1058C80053520A002B264442474553503031415425
:1058D800434950434C4F53450A002B264442474501
:1058E80053503031415443495053544152540A00A3
:1058F80041540D0A0041542B43494653520D0A00A6
:1059080041542B434950434C4F53450D0A004154D1
:105918002B4349504D55583D300D0A0041542B43F7
:10592800495053454E443D0041542B43495053542C
:105938004152543D0041542B43574A41503D004188
:10594800542B43574D4F44453D330D0A00303330F7
:105958003241540D003033303241542B0030363050
:105968003262757379202E00303630326275737961
:10597800207000303630326275737920730031320E
:1059880030352B43494653523A535441495000301D
:10599800383032434C4F5345440D0A0030393032C9
:1059A800434F4E4E4543540D0A003134303244497A
:1059B80053434F4E4E45435445440D0A003037304B
:1059C800324552524F520D0A00303431302B495073
:1059D8004400303430324F4B0D0A003037303272C9
:1059E800656164790D0A003039303253454E4420E0
:1059F8004F4B0D0A00313630325749464920434F44
:105A08004E4E45435445440D0A003137303257490C
:105A1800464920444953434F4E4E4543540D0A00CE
:105A2800313930325749464920444953434F4E4E45
:105A380045435445440D0A003133303257494649ED
:105A480020474F542049500D0A00000055590008BE
:105A58005D590008DA590008C5590008405A00087D
:105A6800FD590008125A0008285A0008B2590008BF
:105A7800EF590008A45900089759000886590008EA
:105A880065590008D1590008E35900087059000801
:105A98007B590008000000002B2645535057494603
:105AA8004920434F4E4E45435445440A002B264552
:105AB800535049503A20002B2655445020434F4E0E
:105AC8004E45435445440A002B265544502053451F
